:020000040800F2
:10000000606A002005390008C9020008CB02000818
:10001000CD020008CF020008D10200080000000055
:10002000000000000000000000000000290200089D
:10003000D3020008000000006D020008F13700083C
:100040001F3900081F3900081F3900081F39000830
:100050001F3900081F3900081F3900081F39000820
:100060001F3900081F3900081F3900081F39000810
:100070001F3900081F3900081F3900081F39000800
:100080001F3900081F3900081F3900081F390008F0
:10009000032500081F3900081F3900081F39000810
:1000A0001F3900088D2100081F3900086B1F000848
:1000B0001F3900081F3900081F3900081F390008C0
:1000C0001F3900081F3900081F3900081F390008B0
:1000D0001F390008171A0008A31A0008AF1C0008EF
:1000E000239100081F3900081F3900081F39000834
:1000F0001F3900081F3900081F3900081F39000880
:100100001F3900081F3900081F3900081F3900086F
:100110001F3900081F3900081F3900081F3900085F
:100120001F3900081F3900081F3900081F3900084F
:1001300000F002F800F068F80AA090E8000C824491
:100140008344AAF10107DA4501D100F05DF8AFF26E
:10015000090EBAE80F0013F0010F18BFFB1A43F0A5
:10016000010318475C0901007C0901000A444FF0B3
:10017000000C10F8013B13F0070408BF10F8014B06
:100180001D1108BF10F8015B641E05D010F8016B4B
:10019000641E01F8016BF9D113F0080F1EBF10F8AF
:1001A000014BAD1C0C1B09D16D1E58BF01F801CBD2
:1001B000FAD505E014F8016B01F8016B6D1EF9D555
:1001C0009142D6D37047000000230024002500266A
:1001D000103A28BF78C1FBD8520728BF30C148BFAA
:1001E0000B60704764290BF0798575290BF07685D3
:1001F00063290BF0CA8773290BF0CF870020704763
:100200001FB51FBD10B510BD0CF00CF81146FFF75F
:10021000F7FF00F054F80CF02AF803B4FFF7F2FFF0
:1002200003BC03F01FFB0000224B19680868B0E80C
:10023000F00F80F30988BFF36F8F4FF0000080F359
:1002400011884EF00D0E704700000000064800684F
:10025000006880F3088862B661B6BFF34F8FBFF3C2
:100260006F8F00DF00BF00BF08ED00E0EFF30980F3
:10027000BFF36F8F0F4B1A6820E9F00F106008B5BD
:100280004FF0500080F31188BFF34F8FBFF36F8F93
:1002900006F010FC4FF0000080F31188BDE8084024
:1002A00019680868B0E8F00F80F30988BFF36F8F12
:1002B000704700BFD0000020EFF30580704710B5F5
:1002C00007F042FF002010BD7047FEE7FEE7FEE7A3
:1002D000FEE770470CB500224C480092019201687D
:1002E00041F4803101604FF4A063016801F40031F2
:1002F00001910099491C0091019911B90099994205
:10030000F3D10168890333D50121019140490A687D
:1003100042F010020A600A6822F003020A600A68CA
:1003200042F002020A6041684160416841604168F0
:1003300041F480614160416821F47C114160416871
:1003400041F4E8114160016841F080710160016889
:100350008901FCD5416821F003014160416841F009
:10036000020141604168C1F381010229FAD10CBD4B
:1003700001920CBD254810B5016841F001010160F2
:100380004168244A114041600168234A11400160DC
:10039000016821F480210160416821F4FE0141607F
:1003A0004FF41F018160FFF795FF1C494FF000607B
:1003B000086010BD154A10B55068194B10F00C01BB
:1003C000184803D0042901D0082901D0036012E0A5
:1003D0005168536801F470114FF0020413F4803F28
:1003E00004EB914102D053689B0301D50E4B00E012
:1003F0000B4B5943016051680A4AC1F30311121DA6
:10040000515C0268CA40026010BD0000001002404A
:10041000002002400000FFF8FFFFF6FE08ED00E0BC
:1004200000127A000000002000093D0030B587B0BE
:1004300001214FF4047003F01CFD4FF4004003F061
:10044000ACFC0820ADF8140000248DF8174005A975
:100450003D4803F026FB2020ADF814008DF817402E
:1004600005A93A4803F01DFB394D284604F05CFC11
:100470004FF46020CDE9020401208DF804408DF88E
:10048000100000948DF805406946284604F068FC89
:100490000121284604F08CFC284604F0A6FC2846DE
:1004A00004F0A8FC0028FAD1284604F0AAFC28464B
:1004B00004F0ACFC0028FAD107B030BD10B5244CD4
:1004C000014607230122204604F0CAFC01212046F0
:1004D00004F0A3FC0221204604F096FD0028F9D088
:1004E0002046BDE8104004F0FFBC2DE9F041002596
:1004F0000E4607462C4608E03846FFF7DFFF054466
:10050000052003F04FF9641CE4B2B442F4D3B5FB08
:10051000F6F080B2BDE8F08110B50520FFF7CEFF00
:100520000DF0FBF94FF066320A4B0DF045FA002250
:10053000094B0DF041FA6FF00B020EF0FAF8BDE82E
:1005400010400CF051BF00000010014000080140B5
:100550000024014066660A400000264008B50121DB
:10056000082003F086FC4FF44060ADF80000102036
:100570008DF8030002208DF802006946FE4803F062
:1005800090FA08BD70B5FC48001D016821F4704167
:100590000160016841F440510160F84C0120C4F849
:1005A000AC01D4F82C1149B1C4F8A80103F0E2F869
:1005B0000025C4F8AC51D4F82C0108B1002070BD5E
:1005C000012003F0D7F8C4F8A851012070BDEA4813
:1005D00010B5001D016821F470410160016841F40B
:1005E00040510160E54C0020C4F8A801C4F8AC01FA
:1005F000012004F5D47403F0BDF801202060606090
:10060000BDE8104003F0B6B870B5DB480024001D0B
:10061000016821F470410160016841F4004101600A
:10062000D64D0126C5F8AC61304603F0A3F8C5F8F5
:10063000A86107E0641CE4B2322C03D9FFF7C7FFBE
:10064000002070BD012003F095F8D5F82C0100289A
:10065000F0D1C5F8A801012070BD70B5C74C0025C8
:10066000C4F8A851C448001D016821F4704101601C
:10067000016841F440510160C4F8AC51012004F517
:10068000D47403F077F80120206003F073F825603C
:1006900070BD70B5B94C0026C4F8A861B648001DFD
:1006A000016821F470410160016841F4405101602A
:1006B0000125C4F8AC51284604F5D47403F05AF867
:1006C0002560012003F056F8266070BD2DE9F04149
:1006D0000546A948001D016821F4704101600168C8
:1006E00041F440510160A54E0027C6F8A8713C4670
:1006F0004FF00108E809C6F8AC016806050E0120B4
:1007000003F038F8C6F8A881012003F033F8C6F8E2
:10071000A871012003F02EF8641CE4B2082CE9D380
:10072000BDE8F0812DE9F0411D4616460C4607460E
:10073000FFF728FF68B17806000EFFF7C7FFFFF745
:1007400063FF40B12046FFF7C1FFFFF75DFF0024C4
:100750000BE00120E4E7FFF73AFFFAE7285DFFF737
:10076000B5FFFFF751FF10B1641CB442F6DBFFF791
:100770002EFF0020D4E72DE9F04781467E48002473
:10078000001D016821F470410160016841F40041DD
:1007900001607A4E254627464FF00108C6F8A87139
:1007A000022002F0E7FFC6F8A8816006040ED6F822
:1007B0002C0108B1641CE4B2022002F0DBFF6D1CC6
:1007C000EDB2082DEAD3B9F1000F02D0FFF745FFD3
:1007D00001E0FFF75EFF2046BDE8F0872DE9F0411C
:1007E0001D4614460F460646FFF7CCFEB0B1700614
:1007F000000EFFF76BFFFFF707FF88B13846FFF7E2
:1008000065FFFFF701FFFFF7BDFE012000EB46008B
:10081000C0B2FFF75BFFFFF7F7FE0DE001207FE7B7
:10082000FFF7D5FEFAE7012C0CD00120FFF7A3FF5C
:10083000641E05F8010BE4B2002CF4D1FFF7C7FEEB
:1008400000206DE70020F1E770B50D460446FFF784
:1008500099FE2046FFF73AFFFFF7D6FE2846FFF73E
:1008600035FFFFF7D1FEFFF78DFE641CE0B2FFF706
:100870002DFFFFF7C9FE0020FFF77DFF0446FFF7BD
:10088000A6FE204670BD2DE9F0411D46164688465D
:1008900007460024FFF776FE3846FFF717FFFFF7FD
:1008A000B3FE4046FFF712FFFFF7AEFEFFF76AFE0A
:1008B0007F1CF8B2FFF70AFFFFF7A6FE771E09E0DC
:1008C000BC4201D0012000E00020FFF754FF285572
:1008D000641CE4B2B442F3D3FFF779FE20461FE76D
:1008E0002DE9F0411D461646884607460024FFF7CD
:1008F00049FE3846FFF7EAFEFFF786FE4046FFF75F
:10090000E5FEFFF781FE06E0285DFFF7DFFEFFF75B
:100910007BFE641CE4B2B442F6D3FFF758FE01201C
:10092000FEE610B51446FFF78FFF2070012010BDC2
:1009300007B502AB0122FFF7D3FF0EBD2DE9F84347
:1009400014461E460D4680466A46089FFFF7E9FF9B
:10095000002820D0621CFF2000FA02F1C4F1080236
:100960003244521ED0400143C6F108008740FAB21B
:10097000C4F10700C24003E0000C014000802142A6
:100980009DF80000084010438DF80000C2B22946CF
:100990004046FFF7CDFFBDE8F883F8B515461C4685
:1009A0000E4607466A46FFF7BCFF01209DF800107F
:1009B000A8400CB1014300E08143CAB28DF8002089
:1009C00031463846FFF7B4FFF8BD000038B50121C5
:1009D000082003F04EFA4FF40054ADF80040102008
:1009E0008DF803000320114D8DF80200694628465A
:1009F00003F057F82146284603F0BDF838BD0C4CEB
:100A00000C4E0D4D0A274FF49678D4F8B401C0432C
:100A1000C4F8B401307810B138462F6002E0404687
:100A2000C5F8008005F07AFFEFE70000000C0140F8
:100A3000008021424401002020000020F8B501215F
:100A4000382003F016FA3320ADF8000010247F4E52
:100A50008DF8034003258DF802506946304603F0B7
:100A600020F841F23000ADF80000794F8DF80340D6
:100A70008DF802506946384603F013F80420ADF8AB
:100A800000008DF80340734C8DF8025069462046F3
:100A900003F007F81021304603F06FF820213046AC
:100AA00003F06BF80121304603F067F8022130466D
:100AB00003F063F81021384603F05FF82021384630
:100AC00003F05BF8A114384603F057F804212046E0
:100AD00003F053F8F8BD2DE9F0410D46044601211D
:100AE00088B0480303F0C5F90121102003F0C1F9D3
:100AF000C022ADF81C2018228DF81F2003208DF88D
:100B00001E0007A9524802F0CCFFADF81440ADF822
:100B10001050DFF8448101250024ADF81650ADF8DF
:100B2000124004A9404603F01FFC6027ADF8007096
:100B30006E02ADF80250ADF80640ADF80840ADF8D1
:100B40000E606946404603F048FC0821404603F029
:100B500091FFADF80070ADF80250ADF80640ADF869
:100B60000840ADF80E606946404603F06BFC082172
:100B7000404603F08FFF0121404603F053FF01215F
:100B8000404603F099FE0121404603F09FFE08B065
:100B9000BDE8F08108B50121042003F06AF94FF4A3
:100BA0008050ADF8000048208DF8030069462B48BE
:100BB00002F077FF08BD70B50D46044688B00121EC
:100BC000042003F05FF90121082003F052F980228C
:100BD000ADF81C2018228DF81F2003208DF81E0070
:100BE00007A91A4802F05DFFADF81440ADF81050A7
:100BF0001B4E01250024ADF81650ADF8124004A993
:100C0000304603F0B1FB6020ADF800006802ADF89B
:100C10000E00ADF80250ADF80640ADF80840694648
:100C2000304603F00FFC0821304603F033FF01216A
:100C3000304603F0F7FE0121304603F03DFE08493F
:100C400040F2DC503831088008B070BD000C014023
:100C50000010014000140140003401400008014030
:100C60000008004030B50023FC4A012411B1C2F84D
:100C7000804101E0C2F880310021C2F8B43105069C
:100C800002D5C2F8B84101E0C2F8B831C2F8B441A7
:100C90004006491C000EC9B20829EED3C2F88041B3
:100CA00030BD70B5EE4E002505F1B000C0B2002198
:100CB000FFF7D8FF00210846FFF7D4FF00211020DE
:100CC000FFF7D0FF002406EBC4000121405DFFF7D1
:100CD000C9FF641CE4B2802CF5D36D1CEDB2082D65
:100CE000E2D370BD00B500218D20FFF7BBFF0021CE
:100CF0001420FFF7B7FF0021AF205DF804EBB1E748
:100D000000B500218D20FFF7ADFF00211020FFF777
:100D1000A9FF0021AE205DF804EBA3E710B4002189
:100D2000CF4B0A46002003EBC004401CC0B2625403
:100D30008028F8D3491CC9B20829F3D310BCB0E706
:100D400010B57F2816D83F2914D80723A3EBD10369
:100D500001F00701C1F107040121A140C04CDBB241
:100D600004EBC000002AC25CC9B201D00A4300E013
:100D70008A43C25410BD2DE9F04F203A9C460D46DF
:100D80008246884602F0FF090026DDF824B02FE0F5
:100D9000BCF10C0F08D0B34901EB09100027845DAA
:100DA000200607D55A4609E0AF4909EB490001EB97
:100DB0008000F3E7BBF1000F12D000222946504615
:100DC000FFF7BEFF60066D1C040EEDB2A5EB080038
:100DD000604507D10AF10100454600F0FF0A05E031
:100DE0000122EBE77F1CFFB2082FD9D3761CF6B2A5
:100DF0006645CDD3BDE8F08F0346012000E058439F
:100E0000491EC9B2FBD270472DE9FF4F81B00027C0
:100E1000DDF838B01D46924680463C464FF0010949
:100E20004FEA5B0627E0281B401EC1B20A20FFF7ED
:100E3000E3FFBAFBF0F00A21B0FBF1F201FB120074
:100E400027B9691E8C4201DA48B101273030C2B29D
:100E500006FB0480C0B25B46CDF8009006E006FBBE
:100E60000480C0B25B462022CDF800900299FFF7C3
:100E700082FF641CE4B2AC42D5D305B0BAE7F8B542
:100E800016460D460446012714E07A2C02D90024A8
:100E90001035EDB23A2D03D900242546FFF73EFF69
:100EA000009732780C2329462046FFF764FF083468
:100EB000E4B2761C30780028E7D1F8BD38B50121BE
:100EC000102002F0D6FF0121084602F0D2FF4EF2B8
:100ED0000100ADF8000010208DF8030002208DF80D
:100EE00002006946614802F0DCFD012004F010FDBB
:100EF000002002F059FF002004F0BEFC002004F0A6
:100F000007FD564C0020C4F8BC01642004F5DE74D3
:100F100002F048FC012020600021AE20FFF7A2FE75
:100F20000021D520FFF79EFE00215020FFF79AFEFA
:100F30000021A820FFF796FE00213F20FFF792FE38
:100F40000021D320FFF78EFE00210846FFF78AFE1E
:100F500000214020FFF786FE00218D20FFF782FE52
:100F600000211420FFF77EFE00212020FFF77AFEEB
:100F700000210220FFF776FE0021A120FFF772FE7C
:100F80000021C020FFF76EFE0021DA20FFF76AFE85
:100F900000211220FFF766FE00218120FFF762FE8C
:100FA0000021EF20FFF75EFE0021D920FFF75AFE57
:100FB0000021F120FFF756FE0021DB20FFF752FE53
:100FC00000213020FFF74EFE0021A420FFF74AFE4B
:100FD0000021A620FFF746FE0021AF20FFF742FECA
:100FE000FFF79CFE38BD10B50446B031C8B20021F1
:100FF000FFF738FE102040EA14100021FFF732FE00
:1010000004F00F00BDE8104000212BE62DE9FF4F52
:101010009846DDF834C091468A4600254FEADC0741
:10102000DFF84CB015E00AEB0500C1B20098FFF7FD
:10103000DAFF07FB095000240BEB001605E0305DDA
:101040000121FFF70FFE641CE4B24445F7D36D1C89
:10105000EDB2B5EBDC0FE6D3BDE8FF8F0000224216
:10106000B80200207EEC00080AE8000800100140E9
:101070006EF20008FE49085C70472DE9F84F012523
:101080008046ADF80050FA4800274770ADF8005090
:10109000F84EF94C81464FF6FF7A25E0BDF8000086
:1010A00010EA080F02D0C6F8845101E0C6F8847136
:1010B000C4F89051052002F05DFBC4F89071052042
:1010C00002F058FBC4F89051D6F8080130B199F8F5
:1010D0000110BDF80020114389F80110BDF800107F
:1010E0000AEA4100ADF80000BDF80000FF28D5D99C
:1010F000BDE8F84F102002F03DBB2DE9FC4700266B
:101100008DF800600125ADF80450DFF870A3CAF82F
:10111000B061DB4C2078FFF7B0FF6078FFF7ADFFE0
:1011200002208DF80000D44CDFF84883D04F4FF6F2
:10113000FF792CE0ADF804501DE0C4F89051052073
:1011400002F018FBC4F89061052002F013FBC4F80C
:101150009051D8F8080140B19DF80000BDF8041086
:10116000385C08439DF800107854BDF8041009EA73
:101170004100ADF80400BDF80400FF28DDD91020BF
:1011800002F0F8FA9DF80000401C8DF800009DF870
:1011900000000928CED3CAF8B051BDE8FC87002072
:1011A000B34A01461154401CC0B20928FAD3704713
:1011B00070B5FFF7F4FFFFF7A0FFAD48B04AB0F8F5
:1011C0000340AF48121D44800020012512F8103062
:1011D00000F101005B1E05FA03F12142C0B202D00A
:1011E0001028F3D3002070BD70B5FFF7E1FF0DF0BC
:1011F000A9F8A4499E4C05460860E0790DF0A2F8D4
:10120000A1490860207A0DF09DF8A0490860607936
:101210000DF098F89E490860A0790DF093F89D496B
:10122000B5F1814F086010D19B49012008709B499E
:10123000002008709A4908709A4908709A49087005
:101240009A49087810B10020087070BD0120FBE7B2
:1012500008B502F0DBFA00900A21684605F004FBAD
:10126000FFF7C2FFF8E7F8B501211C2002F001FEEC
:101270000420ADF8000028208D4E8DF8030069464B
:10128000304602F00EFC0220ADF8000010248DF86C
:10129000034003258DF802506946304602F001FCF8
:1012A0002002ADF800008DF803408DF80250694629
:1012B000804802F0F6FBADF800408DF803408DF851
:1012C000025069467C4802F0ECFBF8BD70B56B4DEE
:1012D0000020C5F8B0016A4C05F5D8752078FFF7F5
:1012E000CCFE6078FFF7C9FE012028606048407896
:1012F000732801D0012070BD002070BD70B55F4C17
:10130000054600200E46C4F8B001102004F5D8743C
:1013100002F030FA0120FFF7B0FE4220FFF7ADFEE9
:101320000020FFF7AAFE2846FFF7A7FE3046FFF78A
:10133000A4FE0020FFF7A1FE0020FFF79EFE002084
:10134000FFF79BFE0020FFF798FE01202060BDE81C
:101350007040102002F00EBA10B5484C0020C4F8BE
:10136000B001102004F5D87402F004FA0120FFF750
:1013700084FE4220FFF781FE0020FFF77EFE002062
:10138000FFF77BFE0020FFF778FE01202060BDE81C
:101390001040102002F0EEB910B5384C0020C4F80F
:1013A000B001102004F5D87402F0E4F90120FFF731
:1013B00064FE4320FFF761FE0020FFF75EFE012080
:1013C000FFF75BFE0020FFF758FE0020FFF755FEF9
:1013D0000020FFF752FE0020FFF74FFE0020FFF72E
:1013E0004CFE01202060BDE81040102002F0C2B980
:1013F00010B5224C0020C4F8B001012004F5D874C7
:10140000FFF73BFE4420FFF738FE0020FFF735FED4
:101410000120FFF732FE0320FFF72FFE0020FFF729
:101420002CFE0020FFF729FE0020FFF726FE0020FB
:10143000FFF723FE01202060BDE81040102002F0DD
:1014400099B910B50D4C0020C4F8B001102004F576
:10145000D87402F08FF90120FFF70FFE4D20FFF73F
:101460000CFE0020FFF709FE0020FFF706FE25E036
:10147000B8060020000022420000214200802142E4
:10148000240000209C0100208C01002090010020FD
:101490009401002098010020680100206A010020CA
:1014A000690100206B0100206C0100204401002034
:1014B00000100140000C0140000801400120FFF72E
:1014C000DCFD01202060BDE81040102002F052B980
:1014D00010B52C4C0020C4F8B001102004F5D874CD
:1014E00002F048F90120FFF7C8FD4320FFF7C5FDD2
:1014F0000020FFF7C2FD0020FFF7BFFD5A20FFF7D5
:10150000BCFD5A20FFF7B9FD5A20FFF7B6FD5A205F
:10151000FFF7B3FD5A20FFF7B0FD01202060BDE8C2
:101520001040102002F026B910B5FFF715FFFFF7A5
:1015300013FFFFF711FFFFF72FFFFFF759FFBDE87C
:101540001040C5E7104810B50078A0B10F4CE07905
:101550000CF0F8FE0E490860207A0CF0F3FE0D49FD
:10156000086060790CF0EEFE0B490860A0790CF081
:10157000E9FE0A490860FFF71BFE0CF0E3FE08498C
:10158000086010BD0080214268010020B8060020DC
:101590008C0100209001002094010020980100207F
:1015A0009C010020FD490880081F01884906FCD5E0
:1015B000704700B5FA4B0022985CFFF7F3FF521C0E
:1015C000D2B2182AF8D300BD30B503460020012955
:1015D00008D10022F24C03E0A55C6840521CD2B254
:1015E0009A42F9D3002908D1ED4A323203E0545C23
:1015F0006040491CC9B29942F9D330BD2DE9FE4F74
:10160000E74C7B20207602907D2084F82E00E54870
:101610000768E5483946066830460CF009FD4FF08A
:10162000FF310DF0B4F8DFF8848341460CF0D2FEB0
:101630000CF034FE00B2608300900025A583314693
:1016400038460CF0CFFFDA4909680CF065FD4146D9
:101650000CF0C0FE0CF022FE00B2D649E0838346B7
:10166000B1F90200608482460888404200B2A0843A
:10167000B1F90470D049E7848146B1F9026026854A
:10168000088840420FFA80F8CC48A4F82A800078F5
:101690000190E8B3A585CA48C44900680CF09AFED9
:1016A0000CF0FCFD20840299217001996170009971
:1016B000090AA1700099E170290A217165714FEA48
:1016C0001B21A17184F807B04FEA1A21217284F816
:1016D00009A04FEA1921A17284F80B90390A2173ED
:1016E0006773310AA173E6734FEA1821217484F8F5
:1016F0001180A18D0A0AA274E174010A2175607536
:1017000001211620FFF760FFA07594F82E0000E07D
:1017100002E0E075BDE8FE8F8988A185BBE708B5CA
:1017200002F074F800903221684605F09DF8FFF74A
:1017300065FFFFF73EFFF6E7A2490880081F018812
:101740004906FCD5704700B5954B0022985CFFF721
:10175000F3FF521CD2B2182AF8D300BD7CB5904CCE
:1017600000206D46215C2954401CC0B20828F9D3E2
:10177000294640F2011000F063FF00202118097A89
:101780002954401CC0B20828F8D369464FF4817030
:1017900000F056FF00202118097C2954401CC0B2DB
:1017A0000828F8D3694640F2031000F049FF7CBDD9
:1017B00030B5054687B00121042002F05AFB012113
:1017C000880302F056FB4FF40070ADF810000320C0
:1017D0008DF8120018207C4C8DF8130004A92046C7
:1017E00002F05FF92015ADF8100048208DF81300C5
:1017F00004A9204602F055F925208DF81400012196
:101800008DF8151000248DF816408DF8171005A8D6
:1018100002F09DF8ADF80440ADF80640ADF8084080
:10182000ADF80C40674C0C20ADF80A00241F009561
:101830006946204602F09CFB012240F225512046D9
:1018400002F013FC0121204602F005FC07B030BD78
:1018500030B5054687B00121042002F00AFB0121C2
:10186000480402F00FFB0420ADF8100003208DF8AF
:1018700012001820544C8DF8130004A9204602F0E1
:1018800010F90820ADF8100048208DF8130004A9C5
:10189000204602F006F926208DF8140000248DF869
:1018A000154001218DF816108DF8171005A802F0CB
:1018B0004EF8ADF80440ADF80640ADF80840ADF87C
:1018C0000C400C20414CADF80A00009569462046BA
:1018D00002F04EFB012240F22551204602F0C5FBEA
:1018E0000121204602F0B7FBB0E730B505460121E3
:1018F00087B0084602F0BDFA0121102002F0B9FAC3
:101900000121880402F0BEFA0121314802F054F9A5
:101910004FF48060ADF8100003208DF812001820FD
:101920002C4C8DF8130004A9204602F0BAF8E114FB
:10193000ADF8101048208DF8130004A9204602F0DD
:10194000B0F827208DF8140002208DF8150000242F
:101950008DF8164001208DF8170005A801F0F7FF5B
:10196000ADF80440ADF80640ADF80840ADF80C40C5
:101970000A4C0C20ADF80A00241F00956946204649
:1019800002F0F6FA012240F22551204602F06DFBEA
:101990000121204602F05FFB58E7000004480040A8
:1019A000F6060020D0620020BC62002000007A44CD
:1019B00084010020E6010020E00100204401002015
:1019C0001400002004380140000801400044004099
:1019D00010001400001001402DE9F04101EB00203F
:1019E00004B24FF47A7794FBF7F007FB10400BF04A
:1019F0007DFFD54AD54B0BF0DFFF054694FBF7F092
:101A00000E460BF073FF2A4633460BF01FFDBDE870
:101A1000F0410BF0E9BC70B5CD4C40F225512046A9
:101A200002F0DAFBD8B3204602F06FFBCA4AC1B21B
:101A3000C84C107800257B29215400D028B1401CC7
:101A4000C0B210700B2802D029E0157027E0157085
:101A5000A07A7D2823D100210920FFF7B5FD617A06
:101A600088421CD1BD48C1490570BD480570BD48BC
:101A70000570BD480570012008702179E078FFF7F6
:101A8000ABFFBB490860A1796079FFF7A5FFB949B1
:101A90000860217AE079FFF79FFFB74908600020CE
:101AA00070BD2DE9F05F40F22551B44802F094FB7F
:101AB000002876D0B148001D0688AA4801270025D5
:101AC000017841B9A5490D70A5490D700770A64868
:101AD0000570A6480570AA48AA4BAB4CDFF8ACC20B
:101AE000AB4A412E08D0622E09D04B2E14D0492E7D
:101AF00014D04A2E12D008E08CF8005005E09CF873
:101B0000001039B100218CF80010117839B1012989
:101B10000DD01DE00121F6E717700CE01570A6F15D
:101B20004101072926D9082E11DC067010E0432E4A
:101B300008D0472E09D01D702570412E1AD0452E91
:101B400018D004E01D70277001E01F70257005702B
:101B5000DFF80082DFF83CB27F4CDFF83C92A8F15E
:101B60006408582E0AD0592E0ED07B2E1AD07D2E06
:101B70001FD010E0A6F140010170E9E75946D9F8FD
:101B800000000CF055FA04E05946D9F800000CF0BA
:101B900029FDC9F800006078012804D002280AD085
:101BA0007BE081E06770A07808F80060401CA070BE
:101BB00073E00220607098F803004146502808D076
:101BC000572809D0487823285ED0A078E070C24614
:101BD0002CE07248077057E001F069FD54E0A178ED
:101BE000081A0BF083FE02460B4600206C490AF0EF
:101BF000E9FE0646E0780F468046504410F8010C96
:101C000030380BF073FE32463B460BF0D5FE0646ED
:101C10000F46A0680CF0E0F932463B460BF016FC8C
:101C20000BF0E2FBA060A8F10100E070C0B2042854
:101C3000D5D29AF801003038062825D2DFE800F026
:101C400003070D13191FA168C9F800101CE05946BD
:101C5000A0680CF061FA534915E05946A0680CF0F1
:101C60005BFA51490FE05946A0680CF055FA4F490C
:101C700009E05946A0680CF04FFA4D4903E0A0680E
:101C80000CF00CFB4B4908606570A5703148E5709D
:101C900032216438A5600AF04BF9D9F8001011F12F
:101CA000FF4F01D3C9F800500020BDE8F09F70B588
:101CB000414C40F22551204602F08EFAD0B3204626
:101CC00002F023FA244AC1B2224C107900257B2964
:101CD000215400D028B1401CC0B210710B2802D092
:101CE00028E0157126E01571A07A7D2822D1002107
:101CF0000920FFF769FC617A88421BD117480570FB
:101D00001748057017480570174805701748057083
:101D10002179E078FFF760FE15490860A1796079C4
:101D2000FFF75AFE13490860217AE079FFF754FE65
:101D300011490860002070BD1049091D0880081F66
:101D400001884906FCD57047FCA9F1D24D62503F8D
:101D500000380140280700204800002068010020CA
:101D60006A010020690100206B0100206C01002045
:101D70007001002074010020780100200044004020
:101D80006D0100208801002089010020440100200D
:101D90008A0100200000C842480100208B01002079
:101DA000000024404C01002050010020540100207C
:101DB00058010020640100200048004008B50121BE
:101DC000082002F056F84FF48040ADF8000048209B
:101DD0008DF803006946224801F063FE08BD2148E2
:101DE0002149027812B1D1F8382122B1D1F8381145
:101DF000012904D005E00021017001207047012174
:101E000001700020704700214FF4FA720020401C3E
:101E10009042FCDB491C3229F8DB704710B5124CAC
:101E2000D4F838010F4B20B958680B2801DA401C50
:101E30005860D4F83801012805D1FFF7E4FFD4F841
:101E40003801012805D058680A2806D0012D04D091
:101E500001E000205860002010BD012010BD0000EE
:101E6000000C01405400002000802142F0B50E46D5
:101E70000546012189B0C80201F0FBFF01210420C1
:101E800001F0F7FF4FF43064ADF81C402821C34F38
:101E90008DF81F1007A9384601F003FE2146384689
:101EA00001F06BFEADF810600024BD4EADF814508B
:101EB000ADF81640ADF8124004A9304602F054FACD
:101EC00001250F20ADF80040ADF80450ADF8080032
:101ED000ADF80240ADF806406946304602F0FCFB22
:101EE0000420ADF80000ADF80450ADF80240ADF8A4
:101EF0000640ADF808406946304602F0EDFB0C2084
:101F0000ADF80000ADF80450ADF80240ADF8064061
:101F1000ADF808406946304602F0DEFB19208DF826
:101F20000C008DF80D408DF80E408DF80F5003A871
:101F300001F00DFD1B208DF80C008DF80D408DF883
:101F40000E408DF80F5003A801F001FD01221E2163
:101F5000304602F0C6FC0121304602F0B7FC0121F8
:101F6000304602F0A9FC09B0F0BD2DE9F0478D49DB
:101F700000248869A0F2416031280CD28A48027896
:101F80004AB901220270894804708948047089485E
:101F90000470894804700878814D884600064FF621
:101FA000FF764FF4FA772CD40221284602F0ADFEDA
:101FB00038B30221284602F0B4FE98F8000040062B
:101FC00028463BD502F08AFEA8F80600B8F80410AF
:101FD0004246884201D2566300E05463401A516B76
:101FE00008445061516A401A00D54042B84200DDB1
:101FF00051615069506288F800400021284602F083
:10200000A3FD98F80100000639D40421284602F007
:102010007CFEA0B30421284602F083FE98F801005C
:102020004006284648D502F05BFEA8F80A00B8F83A
:102030000810424688420ED296630DE002F04EFE32
:102040000146A8F8041098F8001041F0400188F803
:1020500000100221D2E79463401A916B084490610A
:10206000916A401A00D54042B84200DD9161906902
:10207000906288F801400021284602F071FD98F82E
:102080000200000639D40821284602F03EFEA0B323
:102090000821284602F045FE98F80200400628462E
:1020A00044D502F01FFEA8F80E00B8F80C10424606
:1020B00088420ED2D6630DE002F012FE0146A8F867
:1020C000081098F8011041F0400188F80110022131
:1020D000D2E7D463401AD16B0844D061D16A401A68
:1020E00000D54042B84200DDD161D069D06288F8A5
:1020F00002400021284602F047FD1021284602F048
:1021000004FE002840D01021A946284602F009FE0E
:1021100098F80300454640062AD5484602F0E4FDFB
:102120006882298A88420ED22E640DE002F0DAFD20
:102130000146A8F80C1098F8021041F0400188F808
:1021400002100221D6E72C64401A296C0844286248
:10215000296B401A00D54042B84200DD2962286A46
:102160002863EC7000214846BDE8F04702F020BD2E
:102170004C46484602F0B8FD2882E878022140F03B
:102180004000E8702046EFE7BDE8F08704481030D3
:10219000018821F001010180704700000008014022
:1021A000002C01405C0000206A0100206901002031
:1021B000680100206B0100206C0100202DE9F04F28
:1021C00087B00024E8B3E1B3DAB3D3B3491E401EAD
:1021D000CFB200F0FF09521E5B1E0121D6B29DB2A4
:1021E000084601F046FE0121082001F042FE0121CF
:1021F000480601F047FE01214FF4EA1001F0DCFC33
:102200004FF40070ADF810004FF0030B8DF812B0D2
:102210001820DFF810848DF8130004A9404601F05F
:1022200040FC4FF48070ADF8100048208DF813008A
:1022300004A9404601F035FCFB4800230360016817
:1022400000E004E041F001010160021D09E001200D
:1022500007B0BDE8F08F641CA4B2642C01D9022041
:10226000F6E71168C907F6D0016882460160016887
:10227000016001680160016841F0100101600168BE
:10228000016001680160E8491C310B60D1F80080F1
:10229000DDF840C048EA8C7CC1F800C0D1F800806D
:1022A00048EA096CC1F800C0D1F800C04CEA0757F1
:1022B0000F600F6847EA06460E600E682E430E60F8
:1022C000016821F0010101604FF6F07005E0641C27
:1022D000A4B2844201D90320BAE71168C907F6D134
:1022E00001248DF80A408DF80B308DF80C40ADF8C4
:1022F0000030ADF80430ADF80230ADF80630ADF87E
:1023000008308DF80D40684602F02DFFC6481430A5
:10231000016841F00201016014208DF814008DF86D
:1023200015408DF816B08DF8174005A801F00FFB89
:1023300001220221504603F051F9002088E7F0B550
:102340000646B948059D08300468640101D500209F
:1023500008E00468240101D5012003E00068C00002
:1023600046D50220B14C002704EB0014C4F8807558
:10237000E9B3F600D4F880753743C4F88075D4F813
:10238000806546EA8101C4F88015D4F8801541EAD9
:102390004201C4F88015D4F8842503F00F0122F01F
:1023A0000F02C4F88425D4F884250A43C4F8842590
:1023B0002979EA796B7941EA0261AA79120442EA41
:1023C00003221143C4F88C152978EA786B7841EA26
:1023D0000261AA78120442EA03221143C4F8881564
:1023E000D4F8801541F00101C4F88015F0BD01E07A
:1023F000FF20FBE77605BDE78B49083128B10128AE
:1024000010D002281BD00520704708680A6800F029
:10241000010002F002020243086800F0806042EA14
:102420001060704708680A6800F0010002F00202BC
:102430000243086800F0006042EA50607047086894
:102440000A6800F0010002F002020243086800F08E
:10245000805042EA9060704718B1012804D00020F3
:10246000704771480C3001E06F481030006800F090
:1024700003007047F0B56D4CDDE9057504EB001401
:10248000D4F8B06516F004061670D4F8B02533D031
:10249000D2080A60D4F8B01501F002011970D4F81E
:1024A000B41501F00F013970D4F8B8152970D4F8BB
:1024B000B815090A6970D4F8B815090CA970D4F8D0
:1024C000B815090EE970D4F8BC152971D4F8BC15FB
:1024D000090A6971D4F8BC15090CA971D4F8BC15A6
:1024E000090EE97150B1012805D14F48103001683B
:1024F00041F02001016079E7520DCAE74A480C30EB
:10250000F5E700B589B002A907A8CDE9000106AB3F
:1025100005AA04A90020FFF7ADFF9DF80800444973
:10252000802804D101220A604A68521C4A60049A39
:10253000A2F58073813B19D18A68521C8A609DF88C
:10254000091000EB012000B20BF0E4FE39494860AD
:102550009DF80C009DF80D1000EB012000B24042E8
:102560000BF0D8FE3449486007F073F809B000BD9D
:1025700038B500240B4600902246214640F2016007
:10258000FFF7DDFE054640F6FF7301E0641CA4B2D0
:102590002846FFF731FF072801D09C42F6D39C4222
:1025A00001D3012038BD002038BD00B5014686B0FA
:1025B0000020FFF751FF002816D002A8CDE9000146
:1025C00005AB04AA03A90020FFF754FF03981228C3
:1025D00005D19DF8100010B99DF8140010B100202D
:1025E0008DF808009DF8080006B000BD38B500243D
:1025F0000B4600902246214640F20170FFF79FFEF5
:10260000054640F6FF7301E0641CA4B22846FFF7BC
:10261000F3FE072801D09C42F6D39C420ED3012042
:1026200038BD0000000C0140006400400060004024
:10263000A0000020BC620020D06200200020EFE754
:1026400038B500240091082322462146FFF777FE83
:10265000054640F6FF7301E0641CA4B22846FFF76C
:10266000CBFE072801D09C42F6D39C4201D3012027
:10267000D6E70020D4E7000010B540F2DC5001F0AE
:10268000AAF800F040FC00F05DFEBDE810406420B8
:1026900001F0A1B87CB5F8A00024D0E90010CDE984
:1026A0000010052001F07EF86D46285DFEF77AFFE8
:1026B000641CE4B2082CF8D37CBD7CB5F0A00024E7
:1026C000D0E90010CDE90010052001F06BF86D464F
:1026D000285DFEF767FF641CE4B2082CF8D37CBDCC
:1026E00070B5044600234FF6FF704AF20105891EBB
:1026F0000BE0E25C50400022C6074FEA500000D0D9
:102700006840521C082AF7DB5B1C8B42F1DB70BD72
:102710007CB5DDA10024D1E90021CDE9002100280C
:1027200004DD010A8DF804108DF8050008216846C3
:10273000FFF7D6FF8DF80600000A8DF80700052088
:1027400001F030F86D46285DFEF72CFF641CE4B202
:10275000082CF8D37CBD7CB5CDA10024D1E90021A3
:10276000CDE90021002804DD010A8DF804108DF860
:10277000050008216846FFF7B3FF8DF80600000A40
:102780008DF80700052001F00DF86D46285DFEF775
:1027900009FF641CE4B2082CF8D37CBD7CB5BEA153
:1027A0000024D1E90021CDE90021002804DD010A3F
:1027B0008DF804108DF8050008216846FFF790FF9A
:1027C0008DF80600000A8DF80700052000F0EAFFEA
:1027D0006D46285DFEF7E6FE641CE4B2082CF8D3D3
:1027E0007CBD7CB5AEA10024D1E90021CDE900215A
:1027F000002804DD010A8DF804108DF80500082179
:102800006846FFF76DFF8DF80600000A8DF8070097
:10281000052000F0C7FF6D46285DFEF7C3FE641C6F
:10282000E4B2082CF8D37CBD7CB59FA00024D0E98D
:102830000010CDE90010052000F0B4FF6D46285DC2
:10284000FEF7B0FE641CE4B2082CF8D37CBD10B5D2
:10285000FFF7EAFF4FF4FA742046FFF7C2FF204665
:10286000FFF79CFF2046FFF776FF2046FFF750FF5B
:10287000BDE810400EE77FB58DA20024D2E90032FA
:10288000CDE900328CA20028D2E90032CDE9023233
:1028900004DD020A8DF804208DF80500002904DD0E
:1028A000080A8DF80C008DF80D1008252946684699
:1028B000FFF716FF8DF80600000A8DF8070029467D
:1028C00002A8FFF70DFF8DF80E00000A8DF80F002B
:1028D000052000F067FF6D46285DFEF763FE641C6F
:1028E000E4B2082CF8D3052000F05CFF002402AD10
:1028F000285DFEF757FE641CE4B2082CF8D37FBDB8
:102900007CB56FA10024D1E90021CDE90021012887
:1029100017D002208DF8050008216846FFF7E0FE79
:102920008DF80600000A8DF80700052000F03AFF38
:102930006D46285DFEF736FE641CE4B2082CF8D321
:102940007CBD0120E6E77CB55FA10024D1E9002130
:10295000CDE90021012817D001208DF805000821BC
:102960006846FFF7BDFE8DF80600000A8DF80700E7
:10297000052000F017FF6D46285DFEF713FE641C6E
:10298000E4B2082CF8D37CBD0020E6E710B50120A6
:10299000FFF7D9FF0020FFF7B3FF4FF4FA7420468A
:1029A000FFF71FFF2046FFF7F9FE2046FFF7D3FE93
:1029B0002046FFF7ADFE32210846FFF75CFFBDE879
:1029C000104067E67CB542A10024D1E90021CDE9A1
:1029D0000021002804DD010A8DF804108DF805009F
:1029E00008216846FFF77CFE8DF80600000A8DF886
:1029F0000700052000F0D6FE6D46285DFEF7D2FDEB
:102A0000641CE4B2082CF8D37CBD7CB530A1002452
:102A1000D1E90021CDE90021002804DD010A8DF86B
:102A200004108DF8050008216846FFF759FE8DF85F
:102A30000600000A8DF80700052000F0B3FE6D4681
:102A4000285DFEF7AFFD641CE4B2082CF8D37CBD12
:102A50007CB521A00024D0E90010CDE900100520AC
:102A600000F0A0FE6D46285DFEF79CFD641CE4B2FC
:102A7000082CF8D37CBD00000106200E0008E20FF0
:102A80000106200E0007A20B0106208301F473F556
:102A90000106208201F422350106208101F4D2359D
:102AA0000106208001F483F50106200D000353C8C0
:102AB0000106208E003263F40106208F003232348A
:102AC0000106200D0001D2090106200F0000B20905
:102AD0000106208601F463F40106200D0004120AA9
:102AE00010B5FFF7B5FF4FF4FA742046FFF78DFFDE
:102AF0002046FFF767FFBDE81040CBE57CB50D46EB
:102B00009DA10646D1E90001CDE900010024052080
:102B100000F048FE16B1012E02D004E0882000E04B
:102B200089208DF80300280A8DF804008DF80550DF
:102B300008216846FFF7D4FD8DF80600000A8DF8DD
:102B400007006D46285DFEF72DFD641CE4B2082CDD
:102B5000F8D38FE77FB58AA105460FC98DE80F002E
:102B60000024052000F01EFE280A8DF808508DF87C
:102B700009008DF807008DF80A500D216846FFF70F
:102B8000AFFD8DF80B00000A8DF80C006D46285D36
:102B9000FEF708FD641CE4B20D2CF8D37FBD70B5C0
:102BA0000D467BA106460FC988B000248DE80F00B2
:102BB0007BA0D0E90010CDE904107BA0D0E9001083
:102BC000CDE90610052000F0EDFD16B1012E02D072
:102BD00004E08A2000E08C208DF80300290C8DF899
:102BE0000810280A8DF809002A0EEBB28DF807208C
:102BF0008DF80A300D216846FFF772FD8DF80B0045
:102C0000000A8DF80C006D46285DFEF7CBFC641CB5
:102C1000E4B20D2CF8D3052000F0C4FD4FF0000401
:102C20004EB106AD285DFEF7BDFC641CE4B2082C75
:102C3000F8D308B070BD04AD285DFEF7B3FC641C8A
:102C4000E4B2082CF8D3F4E730B587B00546002489
:102C5000142257A1684609F031F95AA0D0E90010B2
:102C6000CDE90510052000F09DFDC5F30740C5F333
:102C700007218DF808008DF80C00EAB28DF80910D4
:102C80002B0E8DF80D108DF80A208DF807308DF879
:102C90000B308DF80E2011216846FFF721FD8DF8CD
:102CA0000F00000A8DF810006D46285DFEF77AFCD3
:102CB000641CE4B2112CF8D3052000F073FD00244D
:102CC00005AD285DFEF76EFC641CE4B2082CF8D359
:102CD00007B030BD7CB50D463CA10646D1E90001E8
:102CE000CDE900010024052000F05CFD16B1012EA5
:102CF00002D004E0902000E091208DF80300280A23
:102D00008DF804008DF8055008216846FFF7E8FCAF
:102D10008DF80600000A8DF807006D46285DFEF765
:102D200041FC641CE4B2082CF8D3A3E67FB529A1CA
:102D300005460FC98DE80F000024052000F032FD84
:102D4000280A8DF808508DF809008DF807008DF8D5
:102D50000A500D216846FFF7C3FC8DF80B00000AEE
:102D60008DF80C006D46285DFEF71CFC641CE4B277
:102D70000D2CF8D37FBD0000010620880000000064
:102D80000110208800020400640064239C000000FD
:102D90000110208C00020400005000000000000020
:102DA0000106200E001123C50106200E001263C487
:102DB0000110208A0004080000500000005000E3C9
:102DC0002C0000000106200E0010E20501062090F4
:102DD000000000000110209000020407D007D0601E
:102DE0002300000010B5FAA086B0D0E90010CDE9AC
:102DF0000010F9A0D0E90010CDE90210F8A0D0E948
:102E00000010CDE90410012000F0E5FC40F201645F
:102E100069462046FFF714FC012000F0DCFC02A903
:102E20002046FFF70DFC012000F0D5FC04A9204648
:102E3000FFF706FC06B010BD10B5EBA188B0D1E9D4
:102E40000021CDE90021EAA10028D1E90021CDE946
:102E50000221E9A1D1E90021CDE90421E8A1D1E9CC
:102E60000021CDE90621C1B2C0F3072203DD8DF8B0
:102E700005208DF804108DF80D208DF815208DF8A3
:102E80001D208DF80C108DF814108DF81C100120E9
:102E900000F0A1FC40F2016469462046FFF7D0FB38
:102EA000012000F098FC02A92046FFF7C9FB012091
:102EB00000F091FC04A92046FFF7C2FB012000F0BE
:102EC0008AFC06A92046FFF7BBFB08B010BD1CB565
:102ED000CDA0D0E90010CDE90010694640F20160B4
:102EE000FFF7AEFB1CBD1CB5C9A1D1E90021CDE99E
:102EF000002110B901208DF80400694640F20160FC
:102F0000FFF79EFB1CBD10B50020FFF7ECFFFFF79D
:102F1000DEFFC1480068FFF78FFFBDE8104061E7A2
:102F20007FB50546BDA00C46D0E90010CDE90010E4
:102F3000BCA0D0E90010CDE90210052000F032FC61
:102F4000002D04DD280A8DF805008DF80450002CB2
:102F500004DD200A8DF80D008DF80C4040F201646C
:102F600069462046FFF76CFB052000F01BFC02A918
:102F70002046FFF765FB7FBD1CB5ACA0D0E9001073
:102F8000CDE90010052000F00DFC694640F201601B
:102F9000FFF756FB1CBD10B5FFF7EEFF9E4800681B
:102FA000FFF74AFFFFF71EFF3C21BDE8104008462F
:102FB000B6E71CB59FA10028D1E90021CDE9002189
:102FC00004DD010A8DF805108DF80400052000F0DD
:102FD000E9FB694640F20160FFF732FB1CBD1CB5FE
:102FE00096A10028D1E90021CDE9002104DD010AE4
:102FF0008DF805108DF80400052000F0D3FB69461C
:1030000040F20160FFF71CFB1CBD1CB58DA0D0E990
:103010000010CDE90010052000F0C4FB694640F225
:103020000160FFF70DFB1CBD10B50120FFF75BFF32
:10303000FFF7EBFF6420FFF7D2FF6420FFF7B9FF33
:10304000BDE81040CEE61CB580A0D0E90010CDE967
:103050000010694640F20160FFF7F2FA1CBD1CB592
:103060007CA17D28D1E90021CDE900211ED006DC1C
:10307000192821D032281DD064280DD118E0FA2853
:1030800012D0B0F5FA7F04D0B0F57A7F04D10020D9
:1030900000E001208DF80400694640F20160FFF76E
:1030A000CFFAFFF7D0FF1CBD0220F3E70320F1E7C2
:1030B0000420EFE70520EDE70620EBE71CB567A04D
:1030C000D0E90010CDE90010694640F20160FFF739
:1030D000B7FA1CBD1CB563A2D2E90032CDE90032BB
:1030E00010B1012802D004E0012000E002208DF898
:1030F00003008DF80410080A8DF80500694640F2B7
:103100000160FFF79DFA1CBD1CB558A20028D2E94A
:103110000032CDE900328DF804004FEA10208DF81E
:1031200005008DF806104FEA11208DF8070069465A
:1031300040F20160FFF784FA1CBD10B54DA286B0C5
:10314000D2E90032CDE900324CA2D2E90032CDE919
:1031500002324CA2D2E90032CDE9043210B101288A
:1031600002D004E0012000E002208DF803000B0EE5
:103170000A0C080A8DF80730CCB28DF806208DF8BD
:1031800005008DF8044040F2016469462046FFF7CF
:1031900057FA02A92046FFF753FA04A92046FFF781
:1031A0004FFA47E610B533A286B0D2E90032CDE936
:1031B00000320BA2D2E90032CDE9023233A2D2E9C9
:1031C0000032CDE9043210B1012865D067E061E03A
:1031D0002B406000060000002B406000070000004C
:1031E0002B4060000F00000023836001640000009A
:1031F00023836002640000002384600264000000F6
:1032000023846001640000002F6060000300000060
:103210002B0F200000000000AC0000202381600183
:103220003C000000238160023C0000002F60600031
:103230000100000023876002640000002387600112
:10324000640000002F606000040000002F102000C8
:10325000010000002F0B2000000000002B40600048
:103260000000000023FF60016400000023FF6003F2
:1032700064006400237A6001007D00002B40600040
:103280004F0000002B4060005F0000002B406000FA
:103290001F000000012000E002208DF803000B0E4B
:1032A0000A0C080A8DF80730CCB28DF806208DF88C
:1032B00005008DF8044040F2016469462046FFF79E
:1032C000BFF902A92046FFF7BBF904A92046FFF782
:1032D000B7F9AFE51CB54AA2D2E90032CDE9003218
:1032E00010B1012802D004E0012000E002208DF896
:1032F00003000B0E0A0C080A8DF807308DF8062023
:10330000CCB28DF805008DF80440694640F20160AA
:10331000FFF796F91CBD1CB53BA10028D1E900219F
:10332000CDE900214FEA10218DF807108DF8060035
:103330008DF805108DF80400694640F20160FFF732
:103340007FF91CBD10B532A092B0D0E90010CDE9D4
:10335000001031A040F20164D0E90010CDE9021064
:103360002FA0D0E90010CDE904102FA0D0E9001063
:10337000CDE906102EA0D0E90010CDE908102EA04E
:10338000D0E90010CDE90A102DA0D0E90010CDE958
:103390000C102DA0D0E90010CDE90E102CA0D0E922
:1033A0000010CDE9101069462046FFF749F90120C9
:1033B00000F011FA02A92046FFF742F904A92046BD
:1033C000FFF73EF9012000F006FA06A92046FFF7B4
:1033D00037F908A92046FFF733F90AA92046FFF775
:1033E0002FF90CA92046FFF72BF90EA92046FFF76D
:1033F00027F910A90020FFF723F912B010BD000033
:103400002B716001E803000023716003E8030000F2
:103410002F001A000000000023001A0120016C6038
:1034200023001A0220026C602300180181010000B1
:103430002F001802FE0000002B00180332000000CD
:103440002F001A00020000002B09200002000000DB
:103450000100000000000000A948A8494160A949F6
:1034600041607047A648016941F0800101617047E1
:10347000A348C068C10701D001207047410701D5AA
:1034800002207047C00601D5032070470020704716
:1034900010B50446FFF7ECFF012803D0002C00D143
:1034A000FF2010BD012000F065F9641E2404240CE7
:1034B000F0D1F5E770B5054645F6FF763046FFF7E3
:1034C000E7FF002812D18E4C206940F002002061F5
:1034D0006561206940F0400020613046FFF7D8FF69
:1034E000012803D0216921F00201216170BD70B56E
:1034F00006460D46FF20FFF7CBFF00280ED1804C7B
:10350000206940F0010020613580FF20FFF7C0FFF7
:10351000012803D0216921F00101216170BD0088DB
:1035200070472DE9F04116460F460546002407E096
:1035300037F814102846FFF7DAFF641CA4B2AD1C5C
:10354000B442F5D3BDE8F08110B5002305E030F8B2
:10355000024B21F813405B1C9BB29342F7D310BD82
:103560002DE9F05F1546A0F1006288468246B2F56B
:10357000802F50D2FFF770FFC2F34906D70AC6F575
:103580008064A54200D82C46DFF87CB14FF0006083
:1035900000EBC72081464FF480625B49FFF7D4FF00
:1035A00000204FF6FF7206E033183BF813109142EB
:1035B00003D1401C80B2A042F6D3A04224D2484698
:1035C000FFF778FF00205A4606E038F810108319FC
:1035D000401C22F8131080B2A042F6D348464FF4A4
:1035E00080624949FFF79DFFA54211D0281B08EBD7
:1035F00044080AEB440A002685B24FF480647F1C1D
:10360000A542C3D82C46C1E7224641465046E9E7C9
:10361000BDE8F05F26E7BDE8F09F13B5012201A9E0
:10362000FFF79EFF1CBD2DE9F04137490A222839DA
:103630003648FFF789FF344C4FF6FF71283C344D74
:103640002088344E344F884218D162888A4215D17E
:10365000A2888A4212D1E2888A420FD122898A4204
:103660000CD162898A4209D1A2898A4206D12B48AB
:1036700028602B4830602B48386063E70AF062FE10
:10368000286060880AF05EFE3060A0880AF05AFE6A
:103690003860E088A0F57A700AF03CFE22490860A4
:1036A0002249208908602249608908604AE7184851
:1036B00010B500680AF00EFE134C143C208015482B
:1036C00000680AF007FE6080134800680AF002FEF6
:1036D000A0801548174900680AF0AAFC0AF0FAFD14
:1036E000E080124821460A22008820811048008884
:1036F0006081BDE81040054832E7000023016745BE
:1037000000200240AB89EFCD7007002000E00008E8
:10371000480100204C010020500100200000C84258
:10372000000096430000F0415C0100206001002091
:10373000AC00002000007A4410B5042000F047F9E6
:1037400038483949394A0068B0FBF1F3B0FBF1F170
:103750004FF47A7041431370012050804FF0E02005
:10376000026942F0020202614161016941F0010116
:10377000016110BD70B54FF0E02500216C692B4A46
:10378000AB6912785043AA699A42FCD002D2A3EBEB
:10379000020302E0A4EB02063344194413468142BB
:1037A000F1D370BD70B5044603F0E0FC01280CD0E5
:1037B0001E4D6888844203D3B4FBF0F003F0AEF8EA
:1037C0006888B4FBF0F100FB11444FF47A70604359
:1037D000BDE87040CEE770B5054600244FF47A7618
:1037E00003E03046FFF7C6FF641CAC42F9D370BD5E
:1037F00010B503F0BBFC012803D0BDE8104004F075
:1038000038BB0A484168491C416010BD10B503F03F
:10381000ADFC012803D0BDE8104003F0B0BA034866
:10382000406810BD0000002040420F00B0000020A2
:1038300030BF704772B6704762B67047410607489E
:10384000826942F0010282610548426822F0E0622A
:10385000426042680A434260704700000010024024
:1038600000000140704724490A885206FCD5224ACC
:10387000C1B2121D1180704730B5044685B00121D8
:1038800044F2040000F0F5FA4FF40071ADF81010A6
:1038900003218DF812101820184D8DF8130004A97B
:1038A000284600F0FEF82915ADF8101004208DF818
:1038B000130004A9284600F0F4F80020ADF8040035
:1038C0000094ADF80600ADF80800ADF80C000C202F
:1038D0000B4CADF80A006946204600F049FB002277
:1038E00040F22551204600F0C0FB0121204600F0A7
:1038F000B2FB05B030BD00000044004000080140AC
:10390000003801400948804709480047FEE7FEE7C4
:10391000FEE7FEE7FEE7FEE7FEE7FEE7FEE7FEE77F
:1039200004480549054A064B704700007503000826
:103930003101000860640020606A00206066002099
:10394000606600202849084328490860704730B560
:103950000F23C27801780125F2B1244A126801F1DF
:10396000E02102F4E062C2F5E062120AC2F104044E
:10397000D3404278A24084781C401443220181F84D
:103980000024007800F01F018D404009800000F104
:10399000E020C0F8005130BD01F01F00854048090B
:1039A000800000F1E020C0F8805130BD104A114085
:1039B00001430E48001F016070470C4A121D002988
:1039C000116801D0014300E08143116070474FF05E
:1039D000E0210428086903D020F004000861704742
:1039E00040F00400FAE700000000FA050CED00E0EA
:1039F00080FFFF1F8F4910B5884206D101210420A6
:103A000000F049FA002104203BE08B49884206D1AE
:103A10000121082000F03FFA0021082031E0874909
:103A2000884206D10121102000F035FA0021102033
:103A300027E08349884206D10121202000F02BFA9B
:103A4000002120201DE07F49884206D1012140202D
:103A500000F021FA0021402013E07B49884206D182
:103A60000121802000F017FA0021802009E0774929
:103A700088420AD184150121204600F00CFA002169
:103A80002046BDE8104000F006BA10BD10B5012177
:103A9000084600F000FA0021BDE81040012000F0C7
:103AA000FAB9F0B5CC78002204F00F03E40601D592
:103AB0008C7823430C784FF00F0C14F0FF0F4FF06D
:103AC000010E1BD005680E880EFA02F42640A642AD
:103AD00010D196000CFA06F725EA070703FA06F557
:103AE000CE783D43282E02D0482E02D002E0446119
:103AF00000E00461521C082AE5D305600A88FF2A09
:103B00001CD94468002202F108060EFA06F50E8858
:103B10002E40AE420ED196000CFA06F7BC4303FAD3
:103B200006F7CE783C43282E00D14561CE78482E4A
:103B300000D10561521C082AE5D34460F0BD4FF660
:103B4000FF710180022181700421C170704702461B
:103B5000002092680A4200D001207047806880B23D
:103B6000704702460020D2680A4200D00120704708
:103B7000C06880B2704701617047416170470AB107
:103B80000161704741617047C160704741F4803204
:103B90008261816182618169806970472C4B10B5B7
:103BA0001A684FF68074224042EA001008431860F9
:103BB00010BD2849C8617047F0B5254C002801DACE
:103BC000E36900E06368450D2E0185B2C0F301573B
:103BD000B540C0F30342032F05D0C6020AD5032621
:103BE0009640B34307E023F07062636823F070638C
:103BF000636002E0AB4343F0706201B12A430028E6
:103C000001DAE261F0BD6260F0BD10B58A0721F013
:103C100003040F49120F21440F238C6893409C43E7
:103C20008C608B68904003438B6010BD0949C1F8DC
:103C3000DC00704700080140000C0140001001400A
:103C40000014014000180140001C01400020014008
:103C50000000014000002042A548016841F0010138
:103C600001604168A34A114041600168A24A1140C5
:103C70000160016821F480210160416821F4FE01A6
:103C800041604FF41F018160704799490A6822F42E
:103C900080320A600A6822F480220A60B0F5803F10
:103CA00007D0B0F5802F03D1086840F4A020086049
:103CB0007047086840F48030F9E70346002059094E
:103CC0008B4A01290AD002290AD0516A03F01F0247
:103CD000012393400B4200D0012070471168F5E7A3
:103CE000116AF3E718B500204FF4A064009031206A
:103CF000FFF7E3FF0099491C0091A14201D0002881
:103D0000F5D03120FFF7D9FF002800D0012018BDE1
:103D1000774A116821F0F80141EAC000106070474D
:103D2000764908607047724B5A68084322F47C1247
:103D30001043586070477149086670476C4A516873
:103D400021F003010143516070476948406800F069
:103D50000C007047664A516821F0F0010143516040
:103D60007047634A516821F4E06101435160704734
:103D70005F4A516821F4605141EAC00050607047C9
:103D80005B4A0029517A01D0014300E0814351721E
:103D900070475A49C1F8D8007047554A516821F414
:103DA00040410143516070475149002281F8202071
:103DB00081F82020012802D0042802D1052081F8B2
:103DC000200070474E490860704749490A6A02431B
:103DD0000A6270474A4944390860704730B5444A1E
:103DE0005168484B11F00C0103D0042901D0082977
:103DF00001D0036012E05168536801F470114FF074
:103E0000020413F4803F04EB914102D053689B03FA
:103E100001D53D4B00E03B4B5943016051680F23F6
:103E200003EA1111394B5C5C0168E1404160546860
:103E3000072505EA14241C5D21FA04F48460546803
:103E400005EAD4241B5DD940C1605268032303EA0C
:103E500092322E4B1B1F9A5CB1FBF2F1016130BD17
:103E6000234A0029516901D0014300E08143516197
:103E700070471F4A0029916901D0014300E0814346
:103E8000916170471A4A0029D16901D0014300E0CD
:103E90008143D1617047164A0029D16801D001439E
:103EA00000E08143D1607047114A0029116901D0B7
:103EB000014300E0814311617047114940390860B6
:103EC00070470E49C86470470949C871704708486F
:103ED000416A41F0807141627047054A0146002005
:103EE00092680A4200D001207047014988727047E9
:103EF000001002400000FFF8FFFFF6FE0000424203
:103F00008004424200127A0000093D00C0000020F7
:103F1000C44910B588420AD101218C032046FFF71D
:103F2000BAFF2046BDE810400021FFF7B4BFBE49EC
:103F3000884202D101214C0410E0BC49884202D1E0
:103F400001218C040AE0BA49884202D10121CC0443
:103F500004E0B84988420AD101210C052046FFF748
:103F6000A3FF2046BDE810400021FFF79DBF10BD14
:103F700030B50446008A85B00D464CF6FF71084006
:103F8000E98801432182A0894EF6F3110840A988EF
:103F90002A8911436A8902431143A181A08A4FF6FD
:103FA000FF410840A9890143A1826846FFF716FF37
:103FB0009C48844201D1039800E00298A189090439
:103FC00000EBC00101EB0010296801D5490000E0B9
:103FD0008900B0FBF1F06422B0FBF2F109010B099A
:103FE0006FF018056B4300EB8300A3891D044FF0AD
:103FF000320306D503EBC000B0FBF2F000F007007F
:1040000005E003EB0010B0FBF2F000F00F000843F6
:10401000208105B030BD4FF4165101600021818030
:10402000C18001810C2242818181704710B5028AD2
:104030004FF2FF031A400B884C8823438C88C988B1
:104040000C4323431343038210BD002101804180B0
:104050008180C18070470029818902D041F40051DC
:1040600001E021F400518181704710B5C1F3421382
:1040700001F01F040121A140012B07D0022B07D022
:104080001430002A026805D00A4304E00C30F8E737
:104090001030F6E78A43026010BD002A828A01D000
:1040A0000A4300E08A4382827047028A22F00F02AC
:1040B0000282028A0A4302827047828922F40062E5
:1040C000828182890A43828170470029818902D0D6
:1040D00041F0020101E021F0020181817047028A72
:1040E00022F020020282028A0A43028270470029DB
:1040F000018A02D041F4804101E021F48041018233
:104100007047C1F30801818070478088C0F30800C0
:104110007047818941F0010181817047028BD2B2E1
:104120000283028B42EA012101837047028B02F471
:104130007F420283028B0A43028370470029818AEF
:1041400002D041F0200101E021F02001818270477E
:104150000029818A02D041F0100101E021F0100114
:10416000818270470029818A02D041F0080101E074
:1041700021F00801818270470029818902D041F431
:10418000004101E0C1F30E01818170470029818A5D
:1041900002D041F4006101E021F4006181827047A6
:1041A000828A22F004028282828A0A4382827047D3
:1041B0000029818A02D041F0020101E021F00201D0
:1041C000818270470246002012880A4200D00120F6
:1041D0007047C9430180704770B501F01F05012683
:1041E0000024C1F3421306FA05F2012B0FD0022B73
:1041F0000FD0838A4FEA11210088134206FA01F694
:1042000000EA060001D000B10124204670BD838978
:10421000F0E7038AEEE70A0A01219140C9430180D1
:104220007047000000380140004400400048004052
:10423000004C004000500040F94910B5884202D1BE
:104240000121C41486E0B0F1804F09D0F5498842BD
:104250000DD101210220FFF727FE0021022064E09A
:1042600001210846FFF720FE002101205DE0EE4914
:10427000884206D101210420FFF716FE0021042008
:1042800053E0EA49884206D101210820FFF70CFEDD
:104290000021082049E0E649884206D1012110208A
:1042A000FFF702FE002110203FE0E249884206D1DC
:1042B00001212020FFF7F8FD0021202035E0DE4914
:1042C000884202D10121441444E0DC49884202D1F1
:1042D0000121CC043EE0DA49884202D101210C05DB
:1042E00038E0D849884202D101214C0532E0D64954
:1042F000884206D101214020FFF7D6FD0021402051
:1043000013E0D249884206D101218020FFF7CCFD7D
:104310000021802009E0CE4988420AD1841501217C
:104320002046FFF7C1FD00212046BDE81040FFF701
:10433000BBBDC849884202D101210C040AE0C6492C
:10434000884202D101214C0404E0C44988420AD1C8
:1043500001218C042046FFF79EFD2046BDE8104059
:104360000021FFF798BD10BD30B50288AC4CB24DAE
:10437000A0420DD0A8420BD0B0F1804F08D0A94B7D
:10438000984205D0A84B984202D0A84B984203D13E
:1043900022F070034A881A43A54B984206D0A54BD9
:1043A000984203D022F44073CA881A4302808A8854
:1043B00082850A880285A0420AD0A84208D0A54A70
:1043C000904205D0A44A904202D0A44A904201D122
:1043D000097A01860121818230BD30B5028C22F03C
:1043E00001020284028C8388048B22F0020224F0F2
:1043F00073050C882C430D8915434A882A43884D40
:10440000A8420BD08C4DA84208D0924DA84205D0AE
:10441000914DA84202D0914DA8420DD122F008053D
:104420004A8923F440732A4322F004058A882A43E8
:104430008D891D43CB892B4383800483C988818662
:10444000028430BD70B5028C22F010020284028C0E
:104450008388048B0D8824F4E6464FF6FF7404EA43
:10446000052535430E8922F0200204EA061616437C
:104470004A8804EA02123243694EB04202D06E4EBC
:10448000B04215D122F080064A8923F4406304EA41
:104490000212324322F040068A8804EA02123243B2
:1044A0008E8904EA86061E43CB8904EA83033343DC
:1044B00083800583C9880187028470BD70B5028C32
:1044C00022F480720284028C8388848B0D8824F00D
:1044D000730425430E894FF6FF7422F4007204EA38
:1044E000062616434A8804EA022232434C4EB04262
:1044F00002D0514EB04215D122F400664A8923F40D
:10450000405304EA0222324322F480668A8804EA95
:10451000022232438E8904EA06161E43CB8904EA3E
:104520000313334383808583C9888187028470BDE8
:1045300070B5028C22F480520284058C8288838BB1
:104540000C8823F4E6464FF6FF7303EA0424344351
:1045500025F400560D8903EA053535434E8803EAF4
:1045600006362E432E4DA84202D0334DA84205D127
:1045700022F480458A8903EA82122A438280848356
:10458000C988A0F84010068470BD828B22F4406276
:104590008283828B4FF6FF7303EA01210A438283F1
:1045A0007047828B22F00C028283828B0A438283C3
:1045B0007047028B22F440620283028B4FF6FF7336
:1045C00003EA01210A4302837047F0B5048C24F00A
:1045D00010040484078B048C4FF6FF7527F473478F
:1045E00005EA03333B4305EA02221A430C4B05EA72
:1045F000011698420ED0104B98420BD0B0F1804F6C
:1046000008D0084B984205D0074B984202D0074B80
:10461000984225D124F02001314341F0100124E0DB
:10462000002C01400004004000080040000C004045
:10463000001000400014004000340140004C0140D4
:10464000005001400054014000180040001C004090
:10465000002000400040014000440140004801406B
:1046600024F0A0030B4343F0100102830184F0BD4A
:10467000028B22F00C020283028B0A4302837047F2
:1046800070B5048C24F001040484058B048C4FF66F
:10469000FF7606EA0313134325F0F305F84A2B438C
:1046A00090420ED0F74A90420BD0B0F1804F08D024
:1046B000F54A904205D0F54A904202D0F44A904221
:1046C00002D124F0020201E024F00A020A4342F07F
:1046D00001010383018470BD2DE9F84F0D460446A6
:1046E0000888E74FDFF89CC3DFF89C83DFF89C93D2
:1046F0004988AA882B894FF0804A48B304282FD0D4
:104700004FF6FF760828934632D0208C9E4620F440
:1047100080502084A38B208C06EA0132009223F47F
:10472000734306EA0B221A4306EA0E331343BC42D4
:104730000AD0644508D0544506D0444504D04C45C1
:1047400002D0D34A944242D120F40050009940E074
:104750002046FFF795FFE9882046BDE8F84F87E738
:104760002046FFF732FFE9882046BDE8F84F20E7F2
:10477000208C20F480702084B4F81CE0208C06EAA1
:10478000031306EA01222EF0F30E43EA0B0343EA79
:104790000E030092BC420AD0644508D0544506D0AE
:1047A000444504D04C4502D0B94A944203D120F488
:1047B0000070009901E020F42060084340F480700C
:1047C000A3832084E9882046BDE8F84FE9E620F479
:1047D0000240084340F48050A3832084E9882046A7
:1047E000BDE8F84FD1E62DE9F0410C460026498896
:1047F0000746012501B90226A288012A00D1022517
:10480000208823890028384610D0FFF7DEFEE18893
:104810003846FFF7CEFE23892A4631463846FFF751
:104820002FFFE1883846BDE8F04121E7FFF728FF78
:10483000E1883846FFF71CFF23892A46314638466F
:10484000FFF7C3FEE1883846BDE8F041B1E610B598
:104850000A884B88CC881A438B8823431A430B89D8
:104860001A434B8989891A430A43A0F8442010BD92
:104870004FF6FF71818000210180C180418001726B
:1048800070470021018041808180C1800181418188
:104890008181C18170470021018041800122828095
:1048A000C180018170470021018041808180C180E9
:1048B00001814181818170470029018802D041F046
:1048C000010101E021F0010101807047002930F869
:1048D000441F02D041F4004101E0C1F30E01018008
:1048E0007047002A828901D00A4300E08A4382810E
:1048F0007047818270471143A0F848107047002A22
:10490000828901D00A4300E08A438281704701898D
:1049100021F0070101817047028922F070020A43E9
:104920000281704700B50346FFF7F6FF188940F093
:104930000700188100BD70B516460D466029044673
:104940004FF0010231460AD0FFF79AFE2946204671
:10495000FFF7E2FF208940F00700208170BDFFF7DC
:1049600034FEF3E730B504894FF6FF7505EA0323FB
:104970001343E4B20B432343038130BD10B5044617
:10498000FFF7F0FF208940F07700208110BD10B5BF
:104990000446FFF7E7FF208940F48040208110BDE6
:1049A000018582827047028822F070020A430280E9
:1049B000704770B50589048B068C25F007050D43FB
:1049C0004FF6FC410C4040F201110C434FF6FF71D1
:1049D00001EA031126F022061143314305810483C5
:1049E000018470BD028B22F070020A43028370477B
:1049F000028B4FF6FF7322F4E04203EA01211143D8
:104A000001837047828B22F070020A4382837047D1
:104A1000828B4FF6FF7322F4E04203EA0121114337
:104A2000818370470029018802D041F0800101E0B4
:104A300021F08001018070470029818802D041F077
:104A4000040101E021F00401818070470029818880
:104A500002D041F0080101E021F008018180704797
:104A60000029818802D041F0010101E021F001011B
:104A700081807047028B22F008020A43028370474C
:104A8000002C0140003401400004004000080040B8
:104A9000000C0040028B4FF6FF7322F4006203EA21
:104AA000012111430183EAE7828B22F008020A43C5
:104AB0008283E4E7828B4FF6FF7322F4006203EAFD
:104AC000012111438183DAE7028B22F004020A43B9
:104AD0000283D4E7028B4FF6FF7322F4806203EA6D
:104AE000012111430183CAE7828B22F004020A43A9
:104AF0008283C4E7828B4FF6FF7322F4806203EA5D
:104B0000012111438183BAE7028B22F080020A431C
:104B10000283B4E7028B4FF6FF73C2F30E0203EA7F
:104B2000012111430183AAE7828B22F080020A430C
:104B30008283A4E7828B4FF6FF73C2F30E0203EA6F
:104B40000121114381839AE7028C22F002020A4379
:104B5000028494E7028C22F008020A4302848EE762
:104B6000028C4FF6FF7322F0200203EA0111114379
:104B7000018484E7028C4FF6FF7322F0800203EA7F
:104B80000111114301847AE7028C4FF6FF7322F47E
:104B9000007203EA01211143018470E7028C4FF691
:104BA000FF7322F4006203EA01211143018466E7E6
:104BB000028C4FF6FF7322F4005203EA01311143D5
:104BC00001845CE710B50123048C8B409C43048472
:104BD000038C8A401343038410BD10B50423048C56
:104BE0008B409C430484038C8A401343038410BD90
:104BF00030B50124058C00F118038C40A5430584D1
:104C000089B108290FD0091FC1F34E00184401686B
:104C100021F4E041016001684FF6FF7303EA0222CC
:104C20001143016030BD03EB5100016821F07001B8
:104C300001600168F4E70029018802D041F0020117
:104C400001E021F00201018019E70029018802D06A
:104C500041F0040101E021F0040101800FE7002987
:104C6000818802D041F0800101E021F08001818043
:104C700005E7028822F00802028002880A430280C7
:104C8000FDE6828822F07002828082880A43828058
:104C9000F5E6028922F00702028102890A430281B5
:104CA000EDE6028922F08002028102890A43028134
:104CB000E5E68184E3E68185E1E68186DFE601873A
:104CC000DDE68187DBE6A0F84010D8E6028822F412
:104CD0004072028002880A430280D0E6808ECEE6CF
:104CE000008FCCE6808FCAE6B0F84000C7E6808C23
:104CF000C5E6008DC3E602460020128A0A4200D0B3
:104D00000120BCE6C9430182B9E602460020138AAD
:104D100092890B4202EA010202D0002A00D001204F
:104D2000ADE6C9430182AAE6C54910B5884202D161
:104D3000012144150AE0C349884202D1012104152A
:104D400004E0C14988420AD10121CC032046FFF783
:104D5000A2F82046BDE810400021FFF79CB810BD26
:104D600010B54268B94B0C791A400B6842EA04222C
:104D7000134343608268B64B1A40D1E90243234390
:104D80004C7942EA440213438360C26A097C22F4EC
:104D90007002491EC9B242EA0151C16210BD002130
:104DA0000160017141718160C1600121017470472E
:104DB0000029816802D041F0010101E021F00101E8
:104DC000816070470029816802D041F4807101E060
:104DD00021F4807181607047002A4268C9B201D015
:104DE0000A4300E08A4342607047816841F008014D
:104DF00081607047014600208968090700D50120BD
:104E00007047816841F004018160704701460020CD
:104E10008968490700D5012070470029816802D0C0
:104E200041F4A00101E021F4A00181607047014636
:104E300000208968490200D5012070474268491E58
:104E400022F4604242EA41314160704700294168E2
:104E500002D041F4006101E021F40061416070473B
:104E600070B5072609290AD9C568A1F10A0404EB1F
:104E70004404A640B543A3401D43C56007E005694F
:104E800001EB4104A640B543A3401D4305611F2328
:104E9000072A09D2446B521E02EB820293409C43C4
:104EA00091400C43446370BD0D2A09D2046BD21F9C
:104EB00002EB820293409C4391400C43046370BD1B
:104EC000C46A0D3A02EB820293409C4391400C432A
:104ED000C46270BD0029816802D041F4801101E0F4
:104EE00021F4801181607047C06C80B270475448D3
:104EF0004C30006870470029416802D041F480615D
:104F000001E021F48061416070470029416802D0CE
:104F100041F4805101E021F4805141607047826882
:104F200022F4E0420A43826070470029816802D07F
:104F300041F4004101E021F4004181607047002903
:104F4000816802D041F4021101E021F40211816074
:104F50007047014600208968890200D5012070470A
:104F600070B5072609290AD9C568A1F10A0404EB1E
:104F70004404A640B543A3401D43C56007E005694E
:104F800001EB4104A640B543A3401D430561836B7B
:104F9000C3F30154121B921C02EB82021F249440A3
:104FA000A34391400B43836370BD826B491E22F47F
:104FB000401242EA01518163704708B508440090ED
:104FC000026008BD08B5084428300090006880B22F
:104FD00008BD42681F4B1A400A4342607047416255
:104FE00082627047426822F01F020A4342607047A3
:104FF000134908310028086802D040F4000001E09D
:1050000020F40000086070470246002012680A423F
:1050100000D001207047C9430160704710B50246B7
:10502000002054680B0AC9B20C401168194202D022
:10503000002C00D0012010BD6FEA112101607047E3
:105040000024014000280140003C0140FFFEF0FF29
:10505000FDF7F1FFFFFD3FFFFE4910B588424FF01D
:10506000010101D14C0601E04FF080642046FEF7BB
:105070001BFF2046BDE810400021FEF715BF10B50C
:105080000368002223F002030360036843F0010376
:1050900003604FF6FF7300E0521C4468E40701D13F
:1050A0009A42F9D14268D2073ED08A79012A026831
:1050B0003CD022F080020260CA79012A026838D00E
:1050C00022F0400202600A7A012A026834D022F0FB
:1050D000200202604A7A012A026830D022F01002CF
:1050E00002608A7A012A02682CD022F0080202604B
:1050F000CA7A012A026828D022F0040202608A7863
:10510000CC78920742EA04620C7942EA04424C7974
:10511000098842EA0452491E0A43C261016821F02B
:1051200001010160002114E0002010BD42F0800266
:10513000C1E742F04002C5E742F02002C9E742F071
:105140001002CDE742F00802D1E742F00402D5E7B1
:10515000491C4268D20701D09942F9D14068C00782
:10516000E2D1012010BDF0B5827ABB4D0121914002
:105170002A6842F001022A60B74E1C3632688A4320
:105180003260B54A047BB54B0C32A4B914688C4329
:1051900014604488C78844EA0744877A03EBC7074A
:1051A000C7F840460488878844EA0744877A03EBB7
:1051B000C707C7F84446047B012C12D114680C437E
:1051C0001460847A026803EBC4044FEA3242C4F8E4
:1051D0004026847A426803EBC4034FEA3242C3F8A4
:1051E00044269D4AC37A121D002B136806D00B4338
:1051F0001360994A0389143213B104E08B43F7E733
:1052000013688B4313600389012B02D113680B438E
:105210001360407B012802D1306808433060286861
:1052200020F001002860F0BD00218171C171017280
:1052300041728172C1728170C170032101710221BA
:10524000417101210180704783490A6842F00102DF
:105250000A600A6843F60E739A430A600A6842EAD3
:1052600000200860086820F00100086070470029ED
:10527000016802D041F4803101E021F48031016005
:1052800070470029016813D041F080010160D0F817
:10529000841141F48071C0F88411D0F8941141F464
:1052A0008071C0F89411D0F8A41141F4807112E01B
:1052B00021F080010160D0F8841121F48071C0F8E0
:1052C0008411D0F8941121F48071C0F89411D0F8B1
:1052D000A41121F48071C0F8A411704730B50246C2
:1052E000002093685B0108D49068000101D501207B
:1052F00003E09068C00044D5022002EB0012D2F80F
:10530000803103F00103C2F880310B7AC3B3D2F8C5
:1053100080414D681C434B7A43EAC5031C43C2F8E5
:1053200080418B7A03F00F038B72D2F8843123F023
:105330000F03C2F88431D2F884318C7A2343C2F847
:105340008431CB7A8C7B0D7B43EA04634C7B240451
:1053500044EA05242343C2F88831CB7B8C7C43EAA2
:1053600004634C7C097C240444EA01210B43C2F809
:105370008C31D2F8801141F00101C2F8801130BDAA
:1053800001E00420FBE7D2F880314C7A23430C88FB
:1053900043EA4453C2F88031C3E7002221B1012916
:1053A00005D0022906D112E082682D4801E082680A
:1053B0002C4802402C49501A8A4214D00ADCA2B16F
:1053C0006FF0806010180FD002280CD10FE08268B7
:1053D0002648EEE7B0F5007F09D02549401803D0F4
:1053E000B0F5003F03D00020704702207047012035
:1053F000704741B101290AD0022903D1816841F4E3
:10540000000181607047816841F08001F9E781689F
:1054100041F40041F5E710B500EB0113D3F8B041BA
:1054200014F004041472D3F8B04144D0E40854607A
:10543000D3F8B04104F002045472D3F8B44104F03C
:105440000F049472D3F8B441240AD474D3F8B84149
:10545000D4720FE00064004000660040006000402D
:10546000030000040003000800010008000003100E
:105470000001FFF7D3F8B841240A1473D3F8B841F8
:10548000240C5473D3F8B841240E9473D3F8BC4160
:10549000D473D3F8BC41240A1474D3F8BC41240C4F
:1054A0005474D3F8BC311B0E937439B1016941F0C7
:1054B0002001016110BD640D1460B9E7C16841F0BD
:1054C0002001C16010BD21B1016941F020010161DD
:1054D0007047C16841F02001C1607047024600205A
:1054E00029B1012902D1106900F003007047D0688A
:1054F000FAE700234FF6FF7221B1012917D00229E4
:1055000024D03AE0016821F0020141F0010101607C
:1055100000E0521E416801F00301012901D0002A78
:10552000F7D1406800F00300012823D124E001688E
:1055300021F00301016000E0521E4168890701D09B
:10554000002AF9D14068800714D115E0016821F0E4
:10555000010141F00201016000E0521E416801F0CA
:105560000301022901D0002AF7D1406800F00300AE
:10557000022801D0002300E001231846704702688A
:10558000002122F0010242F002020260406800F0B5
:105590000300022800D101210846704702684FF637
:1055A000FF71002322F00202026000E0491E4268FF
:1055B000920701D50029F9D14068800700D4012362
:1055C000184670478069C0F3021000017047806977
:1055D000000E70478069C0F307407047002A426997
:1055E00001D00A4300E08A4342617047024600202E
:1055F00011F4700F03D0926904E001207047CB01D1
:1056000004D552680A401103F7D170470B0101D548
:105610009268F7E78B0101D5D268F3E71269F1E7E9
:10562000534A914202D1002181617047C1F31302B4
:105630008B0101D5C26070474B0101D502617047F3
:10564000090101D582607047426070470246002020
:1056500053690B424AD0B1F5807F3BD013DC082957
:105660002ED007DC012926D0022927D004293DD1DC
:10567000D0682BE0102925D0202926D0402935D10B
:105680001069102130E0B1F5004F2BD00BDCB1F5E3
:10569000007F22D0B1F5806F22D0B1F5006F25D107
:1056A0009069702120E0B1F5803F11D0B1F5003F45
:1056B0001CD15068E5E790682E4915E0D06802E0FB
:1056C000D068DEE7106903210EE0106908210BE0C5
:1056D0005068FBE79069012106E09069022103E030
:1056E000906900E05068042100F03BB8704730B585
:1056F000082310240422B1F5007F1DD010DC2029DE
:1057000029D007DC012921D0042922D0082900D181
:10571000C46034E6402920D0B1F5807FF9D10BE098
:105720000025B1F5004F06D008DCB1F5806F03D03D
:10573000B1F5006FEDD18561426020E6B1F5803FA3
:105740000DD0B1F5003FE4D1446018E6094981600D
:1057500015E6C36013E6036111E604610FE64360DA
:105760000DE6024600200A4200D0012070470000EA
:105770007000F03001010100374900200860091D68
:105780000860091D0860091D086033493348143159
:105790000860704730B5304A8379016853B31368A5
:1057A0008B431360111D0B680468A3430B600179E0
:1057B00011440B68046823430B60274B08331968B6
:1057C0000468A14319601C1D21680568A943216074
:1057D0004179102905D011440A68006802430A6023
:1057E00030BD1968026811431960216800680143DF
:1057F000216030BD0079104402688A43026030BDE8
:105800000021016001710C224271817170471249BF
:1058100010310A6802430A60704701460E4A0020B0
:10582000143212680A4200D0012070470A4914312C
:1058300008607047084A014600201268064B0A407B
:1058400014331B680B4202D0002A00D0012070479D
:10585000014914310860704700040140FFFF0F0048
:1058600010B50120FEF729FBBDE810400020FEF72F
:1058700024BB1F49086070471D49091F0860704715
:105880001B498431086070471A4A118821F46071FD
:10589000014311807047174A118821F07F010143AD
:1058A00011807047134A08B52C3A104400900160EB
:1058B00008BD104908B52C3908440090008808BD7F
:1058C0000B489C300068C0B270470A480830018815
:1058D00041F00101018070470548A0300068C0B266
:1058E000704704480830018841F002010180704788
:1058F00004860D422C6C004010B501210C07204697
:10590000FEF7D2FA2046BDE810400021FEF7CCBADF
:105910002149086270472049086170471F4A116891
:1059200021F0E0010143116070471B49C1F8A0005C
:1059300070471A4B1A6822F0030202431A60184893
:10594000026842F004020260012905D020BF01680C
:1059500021F004010160704730BFF8E70F4801688B
:1059600041F004010160016841F0020101600C484E
:10597000016841F00401016030BF7047074A0146E9
:10598000002052680A4200D00120704703490A688B
:1059900042EA80000860704700000E42007000403C
:1059A00010ED00E000F108014FF0FF32C0E90112F4
:1059B000C1600161002101607047002101617047F1
:1059C00042684A6093688B6093685960916008618F
:1059D0000168491C0160704730B50C68621C02D038
:1059E00000F1080202E0026904E01A4653681D68EB
:1059F000A542FAD953684B6099608A60516008618A
:105A00000168491C016030BDD0E9013201699A602A
:105A1000D0E901235A604A68824201D182684A6013
:105A2000002202610868401E0860704770B50D468C
:105A3000040005D140F21B12F2A1F7A006F0D0F845
:105A400002F0ECF9D4E90F20216802FB001161603B
:105A50000021A1632168A1600A46D4E90F01401E1C
:105A600000FB0121E16021464FF0FF3001F8440FB7
:105A7000487004F110004DB1FFF794FF04F12400C9
:105A8000FFF790FF02F0E4F9012070BD21690029C1
:105A9000F8D001F0A3FA0028F4D0E3494FF0805089
:105AA0000860BFF34F8FBFF36F8FEBE72DE9F04135
:105AB00017460E46050005D14FF4C472D1A1D6A0F9
:105AC00006F08EF8BEB105FB06F0543002F056FA2F
:105AD00004000ED004F154007EB12060C4E90F56DA
